:100000000C942A000C943C000C943C000C943C0092
:100010000C943C000C943C000C943C000C943C0070
:100020000C943C000C943C000C9485000C944B0008
:100030000C943C000C943C000C943C000C943C0050
:100040000C943C000C943C000C943C000C943C0040
:100050000C943C0011241FBECFE5D8E0DEBFCDBF1D
:1000600020E0A0E6B0E001C01D92A636B207E1F79D
:100070000E943E000C948E030C94000080E884BB28
:100080000E94BF0064EF71E080E090E00E94DF001A
:100090000E94D500FFCF1F920F920FB60F9211242E
:1000A0004F935F936F937F938F939F93AF93BF9380
:1000B000809160008F5F809360008091600090E08D
:1000C000A0E0B0E040916200509163006091640054
:1000D0007091650084179507A607B70749F485B3A3
:1000E000805885BB8091610082BF10926000E5CF8F
:1000F000BF91AF919F918F917F916F915F914F9140
:100100000F900FBE0F901F9018951F920F920FB671
:100110000F9211244F935F936F937F938F939F93CD
:10012000AF93BF93809160008F5F80936000809158
:10013000600090E0A0E0B0E0409162005091630068
:10014000609164007091650084179507A607B70752
:1001500049F485B3805885BB809161008CBF1092B3
:100160006000E5CFBF91AF919F918F917F916F918B
:100170005F914F910F900FBE0F901F90189583B70E
:100180008F7B83BF83B7886083BF8FB780688FBF43
:1001900089B7826089BF83B78F7783BF83B78F7D2D
:1001A00083BF83B78F7E83BF089583B7816083BF8A
:1001B00083B78D7F83BF83B7846083BF08958F9299
:1001C0009F92AF92BF92CF92DF92EF92FF929B01EC
:1001D000AC01A8EEB3E00E9474036B017C0120EC3B
:1001E0003FE340E050E00E94520349015A0120934E
:1001F0006200309363004093640050936500C70130
:10020000B60126E096958795779567952A95D1F75B
:100210000E94570220E030E04FE753E40E94B6010D
:100220006B017C01C501B4010E9457029B01AC0126
:10023000C701B6010E94490120E030E04FE753E4D6
:100240000E94E50220E030E040E85FE30E944901BF
:100250000E942802609361006CBF809162009091BF
:100260006300A0916400B09165000196A11DB11DCD
:100270008093620090936300A0936400B093650044
:10028000FF90EF90DF90CF90BF90AF909F908F90B6
:1002900008955058BB27AA270E9461010C94AB0215
:1002A0000E949D0238F00E94A40220F039F49F3F82
:1002B00019F426F40C949A020EF4E095E7FB0C94E2
:1002C0009402E92F0E94BC0258F3BA176207730721
:1002D0008407950720F079F4A6F50C94DE020EF45D
:1002E000E0950B2EBA2FA02D0B01B90190010C0146
:1002F000CA01A0011124FF27591B99F0593F50F45E
:10030000503E68F11A16F040A22F232F342F4427B5
:10031000585FF3CF469537952795A795F0405395AD
:10032000C9F77EF41F16BA0B620B730B840BBAF07D
:100330009150A1F0FF0FBB1F661F771F881FC2F7E8
:100340000EC0BA0F621F731F841F48F487957795FC
:100350006795B795F7959E3F08F0B0CF9395880FB6
:1003600008F09927EE0F9795879508950E94CA0186
:100370000C94AB020E94A40258F00E949D0240F02F
:1003800029F45F3F29F00C94940251110C94DF0280
:100390000C949A020E94BC0268F39923B1F355238E
:1003A00091F3951B550BBB27AA2762177307840788
:1003B00038F09F5F5F4F220F331F441FAA1FA9F31E
:1003C00035D00E2E3AF0E0E832D091505040E6950C
:1003D000001CCAF72BD0FE2F29D0660F771F881F6D
:1003E000BB1F261737074807AB07B0E809F0BB0B60
:1003F000802DBF01FF2793585F4F3AF09E3F510574
:1004000078F00C9494020C94DF025F3FE4F3983E82
:10041000D4F3869577956795B795F7959F5FC9F75C
:10042000880F911D9695879597F90895E1E0660FDD
:10043000771F881FBB1F621773078407BA0720F056
:10044000621B730B840BBA0BEE1F88F7E0950895BF
:100450000E94C40288F09F5798F0B92F9927B7518E
:10046000B0F0E1F0660F771F881F991F1AF0BA9558
:10047000C9F714C0B13091F00E94DE02B1E00895D6
:100480000C94DE02672F782F8827B85F39F0B93FC8
:10049000CCF3869577956795B395D9F73EF490950B
:1004A0008095709561957F4F8F4F9F4F0895E89489
:1004B00009C097FB3EF490958095709561957F4FAC
:1004C0008F4F9F4F9923A9F0F92F96E9BB2793955A
:1004D000F695879577956795B795F111F8CFFAF46A
:1004E000BB0F11F460FF1BC06F5F7F4F8F4F9F4F9B
:1004F00016C0882311F096E911C0772321F09EE8F9
:10050000872F762F05C0662371F096E8862F70E05E
:1005100060E02AF09A95660F771F881FDAF7880F38
:100520009695879597F9089597F99F6780E870E009
:1005300060E008959FEF80EC089500240A94161659
:10054000170618060906089500240A9412161306C1
:10055000140605060895092E0394000C11F488234F
:1005600052F0BB0F40F4BF2B11F460FF04C06F5F6B
:100570007F4F8F4F9F4F089557FD9058440F551F41
:1005800059F05F3F71F04795880F97FB991F61F015
:100590009F3F79F087950895121613061406551F8C
:1005A000F2CF4695F1DF08C0161617061806991FF8
:1005B000F1CF86957105610508940895E894BB27ED
:1005C00066277727CB0197F908950E94F8020C94CB
:1005D000AB020E949D0238F00E94A40220F09523F5
:1005E00011F00C9494020C949A0211240C94DF02E2
:1005F0000E94BC0270F3959FC1F3950F50E0551F08
:10060000629FF001729FBB27F00DB11D639FAA2767
:10061000F00DB11DAA1F649F6627B00DA11D661FB6
:10062000829F2227B00DA11D621F739FB00DA11DD7
:10063000621F839FA00D611D221F749F3327A00D91
:10064000611D231F849F600D211D822F762F6A2F2D
:1006500011249F5750409AF0F1F088234AF0EE0F92
:10066000FF1FBB1F661F771F881F91505040A9F7BF
:100670009E3F510580F00C9494020C94DF025F3F82
:10068000E4F3983ED4F3869577956795B795F795FB
:10069000E7959F5FC1F7FE2B880F911D9695879573
:1006A00097F90895A1E21A2EAA1BBB1BFD010DC0EC
:1006B000AA1FBB1FEE1FFF1FA217B307E407F50712
:1006C00020F0A21BB30BE40BF50B661F771F881FEE
:1006D000991F1A9469F760957095809590959B0184
:1006E000AC01BD01CF0108950E947F03A59F900D2D
:1006F000B49F900DA49F800D911D11240895A29F79
:10070000B001B39FC001A39F700D811D1124911DE5
:10071000B29F700D811D1124911D0895F894FFCF93
:00000001FF
