S00D000054696D65722E7372656316
S11300000C942A000C943C000C943C000C943C008E
S11300100C943C000C943C000C943C000C943C006C
S11300200C943C000C943C000C94E4000C94A00050
S11300300C943C000C943C000C943C000C943C004C
S11300400C943C000C943C000C943C000C943C003C
S11300500C943C0011241FBECFE5D8E0DEBFCDBF19
S113006020E0A0E6B0E001C01D92AD36B207E1F792
S11300700E943E000C943C010C94000088E087BB75
S11300800E9473008091600090E00E9497000E949B
S113009083002FEF80E792E0215080409040E1F709
S11300A000C000000E948D00809160008F5F8093EB
S11300B06000843639F780916000882319F38150F9
S11300C08093600090E00E9497000E9483002FEFCD
S11300D081EE94E0215080409040E1F700C00000A0
S11300E00E948D00E8CF83B78F7783BF83B7806486
S11300F083BF83B7877F83BF83B7806283BF83B7A0
S11301008F7E83BF089583B7816083BF83B78D7F5C
S113011083BF83B78B7F83BF089583B78E7F83BFED
S113012083B78D7F83BF83B78B7F83BF089520E020
S1130130982F822F64E670E00E9428016CBF089516
S11301401F920F920FB60F9211242F933F934F9348
S11301505F936F937F938F939F93AF93BF93EF932B
S1130160FF93809163008F5F8093630080916300AD
S113017090E0A0E0B0E04091690050916A00609185
S11301806B0070916C0084179507A607B70759F4A4
S1130190E0916100F091620009958091640082BF52
S11301A010926300E3CFFF91EF91BF91AF919F91C4
S11301B08F917F916F915F914F913F912F910F900C
S11301C00FBE0F901F9018951F920F920FB60F92AB
S11301D011242F933F934F935F936F937F938F9348
S11301E09F93AF93BF93EF93FF93809163008F5FCF
S11301F0809363008091630090E0A0E0B0E04091C0
S113020065005091660060916700709168008417E2
S11302109507A607B70759F4E0916100F0916200D1
S11302200995809164008CBF10926300E3CFFF9125
S1130230EF91BF91AF919F918F917F916F915F915A
S11302404F913F912F910F900FBE0F901F901895D3
S1130250AA1BBB1B51E107C0AA1FBB1FA617B707E8
S113026010F0A61BB70B881F991F5A95A9F7809504
S10F02709095BC01CD010895F894FFCFD7
S9030000FC
